{
  "address": "0xe7f1725E7734CE288F8367e1Bb143E90bb3F0512",
  "abi": [
    {
      "inputs": [
        {
          "internalType": "address",
          "name": "priceFeedAddress",
          "type": "address"
        }
      ],
      "stateMutability": "nonpayable",
      "type": "constructor"
    },
    {
      "inputs": [],
      "name": "NotOwner",
      "type": "error"
    },
    {
      "stateMutability": "payable",
      "type": "fallback"
    },
    {
      "inputs": [],
      "name": "MINIMUM_USD",
      "outputs": [
        {
          "internalType": "uint256",
          "name": "",
          "type": "uint256"
        }
      ],
      "stateMutability": "view",
      "type": "function"
    },
    {
      "inputs": [
        {
          "internalType": "address",
          "name": "",
          "type": "address"
        }
      ],
      "name": "addressToAmountFunded",
      "outputs": [
        {
          "internalType": "uint256",
          "name": "",
          "type": "uint256"
        }
      ],
      "stateMutability": "view",
      "type": "function"
    },
    {
      "inputs": [],
      "name": "fund",
      "outputs": [],
      "stateMutability": "payable",
      "type": "function"
    },
    {
      "inputs": [
        {
          "internalType": "uint256",
          "name": "",
          "type": "uint256"
        }
      ],
      "name": "funders",
      "outputs": [
        {
          "internalType": "address",
          "name": "",
          "type": "address"
        }
      ],
      "stateMutability": "view",
      "type": "function"
    },
    {
      "inputs": [],
      "name": "getVersion",
      "outputs": [
        {
          "internalType": "uint256",
          "name": "",
          "type": "uint256"
        }
      ],
      "stateMutability": "view",
      "type": "function"
    },
    {
      "inputs": [],
      "name": "i_owner",
      "outputs": [
        {
          "internalType": "address",
          "name": "",
          "type": "address"
        }
      ],
      "stateMutability": "view",
      "type": "function"
    },
    {
      "inputs": [],
      "name": "priceFeed",
      "outputs": [
        {
          "internalType": "contract AggregatorV3Interface",
          "name": "",
          "type": "address"
        }
      ],
      "stateMutability": "view",
      "type": "function"
    },
    {
      "inputs": [],
      "name": "withdraw",
      "outputs": [],
      "stateMutability": "nonpayable",
      "type": "function"
    },
    {
      "stateMutability": "payable",
      "type": "receive"
    }
  ],
  "transactionHash": "0x820ad182864a756ac90271badc001b36dcbbe12d05253558e8379010fa5ec2fb",
  "args": [
    "0x5FbDB2315678afecb367f032d93F642f64180aa3"
  ],
  "numDeployments": 1,
  "solcInputHash": "8c26c25588a80b4b60f45f0f351d599f",
  "bytecode": "0x60806040523480156200001157600080fd5b50604051620010f9380380620010f983398181016040528101906200003791906200012a565b80600260006101000a81548173ffffffffffffffffffffffffffffffffffffffff021916908373ffffffffffffffffffffffffffffffffffffffff16021790555033600360006101000a81548173ffffffffffffffffffffffffffffffffffffffff021916908373ffffffffffffffffffffffffffffffffffffffff160217905550506200015c565b600080fd5b600073ffffffffffffffffffffffffffffffffffffffff82169050919050565b6000620000f282620000c5565b9050919050565b6200010481620000e5565b81146200011057600080fd5b50565b6000815190506200012481620000f9565b92915050565b600060208284031215620001435762000142620000c0565b5b6000620001538482850162000113565b91505092915050565b610f8d806200016c6000396000f3fe60806040526004361061007f5760003560e01c8063741bef1a1161004e578063741bef1a14610142578063b60d42881461016d578063dba6335f14610177578063dc0d3dff146101a25761008e565b80630d8e6e2c146100985780633ccfd60b146100c35780633e47d6f3146100da5780636b69a592146101175761008e565b3661008e5761008c6101df565b005b6100966101df565b005b3480156100a457600080fd5b506100ad610319565b6040516100ba919061084e565b60405180910390f35b3480156100cf57600080fd5b506100d86103c0565b005b3480156100e657600080fd5b5061010160048036038101906100fc91906108cc565b610602565b60405161010e919061084e565b60405180910390f35b34801561012357600080fd5b5061012c61061a565b604051610139919061084e565b60405180910390f35b34801561014e57600080fd5b50610157610627565b6040516101649190610958565b60405180910390f35b6101756101df565b005b34801561018357600080fd5b5061018c61064d565b6040516101999190610982565b60405180910390f35b3480156101ae57600080fd5b506101c960048036038101906101c491906109c9565b610673565b6040516101d69190610982565b60405180910390f35b6802b5e3af16b188000061021e600260009054906101000a900473ffffffffffffffffffffffffffffffffffffffff16346106b290919063ffffffff16565b101561025f576040517f08c379a000000000000000000000000000000000000000000000000000000000815260040161025690610a53565b60405180910390fd5b346000803373ffffffffffffffffffffffffffffffffffffffff1673ffffffffffffffffffffffffffffffffffffffff16815260200190815260200160002060008282546102ad9190610aa2565b925050819055506001339080600181540180825580915050600190039060005260206000200160009091909190916101000a81548173ffffffffffffffffffffffffffffffffffffffff021916908373ffffffffffffffffffffffffffffffffffffffff160217905550565b6000600260009054906101000a900473ffffffffffffffffffffffffffffffffffffffff1673ffffffffffffffffffffffffffffffffffffffff166354fd4d506040518163ffffffff1660e01b815260040160206040518083038186803b15801561038357600080fd5b505afa158015610397573d6000803e3d6000fd5b505050506040513d601f19601f820116820180604052508101906103bb9190610b0d565b905090565b600360009054906101000a900473ffffffffffffffffffffffffffffffffffffffff1673ffffffffffffffffffffffffffffffffffffffff163373ffffffffffffffffffffffffffffffffffffffff1614610447576040517f30cd747100000000000000000000000000000000000000000000000000000000815260040160405180910390fd5b60005b6001805490508110156104f25760006001828154811061046d5761046c610b3a565b5b9060005260206000200160009054906101000a900473ffffffffffffffffffffffffffffffffffffffff16905060008060008373ffffffffffffffffffffffffffffffffffffffff1673ffffffffffffffffffffffffffffffffffffffff168152602001908152602001600020819055505080806104ea90610b69565b91505061044a565b50600067ffffffffffffffff81111561050e5761050d610bb2565b5b60405190808252806020026020018201604052801561053c5781602001602082028036833780820191505090505b506001908051906020019061055292919061078e565b5060003373ffffffffffffffffffffffffffffffffffffffff164760405161057990610c12565b60006040518083038185875af1925050503d80600081146105b6576040519150601f19603f3d011682016040523d82523d6000602084013e6105bb565b606091505b50509050806105ff576040517f08c379a00000000000000000000000000000000000000000000000000000000081526004016105f690610c73565b60405180910390fd5b50565b60006020528060005260406000206000915090505481565b6802b5e3af16b188000081565b600260009054906101000a900473ffffffffffffffffffffffffffffffffffffffff1681565b600360009054906101000a900473ffffffffffffffffffffffffffffffffffffffff1681565b6001818154811061068357600080fd5b906000526020600020016000915054906101000a900473ffffffffffffffffffffffffffffffffffffffff1681565b6000806106be836106ee565b90506000670de0b6b3a764000085836106d79190610c93565b6106e19190610d1c565b9050809250505092915050565b6000808273ffffffffffffffffffffffffffffffffffffffff1663feaf968c6040518163ffffffff1660e01b815260040160a06040518083038186803b15801561073757600080fd5b505afa15801561074b573d6000803e3d6000fd5b505050506040513d601f19601f8201168201806040525081019061076f9190610dc5565b5050509150506402540be400816107869190610e40565b915050919050565b828054828255906000526020600020908101928215610807579160200282015b828111156108065782518260006101000a81548173ffffffffffffffffffffffffffffffffffffffff021916908373ffffffffffffffffffffffffffffffffffffffff160217905550916020019190600101906107ae565b5b5090506108149190610818565b5090565b5b80821115610831576000816000905550600101610819565b5090565b6000819050919050565b61084881610835565b82525050565b6000602082019050610863600083018461083f565b92915050565b600080fd5b600073ffffffffffffffffffffffffffffffffffffffff82169050919050565b60006108998261086e565b9050919050565b6108a98161088e565b81146108b457600080fd5b50565b6000813590506108c6816108a0565b92915050565b6000602082840312156108e2576108e1610869565b5b60006108f0848285016108b7565b91505092915050565b6000819050919050565b600061091e6109196109148461086e565b6108f9565b61086e565b9050919050565b600061093082610903565b9050919050565b600061094282610925565b9050919050565b61095281610937565b82525050565b600060208201905061096d6000830184610949565b92915050565b61097c8161088e565b82525050565b60006020820190506109976000830184610973565b92915050565b6109a681610835565b81146109b157600080fd5b50565b6000813590506109c38161099d565b92915050565b6000602082840312156109df576109de610869565b5b60006109ed848285016109b4565b91505092915050565b600082825260208201905092915050565b7f596f75206e65656420746f207370656e64206d6f726520455448210000000000600082015250565b6000610a3d601b836109f6565b9150610a4882610a07565b602082019050919050565b60006020820190508181036000830152610a6c81610a30565b9050919050565b7f4e487b7100000000000000000000000000000000000000000000000000000000600052601160045260246000fd5b6000610aad82610835565b9150610ab883610835565b9250827fffffffffffffffffffffffffffffffffffffffffffffffffffffffffffffffff03821115610aed57610aec610a73565b5b828201905092915050565b600081519050610b078161099d565b92915050565b600060208284031215610b2357610b22610869565b5b6000610b3184828501610af8565b91505092915050565b7f4e487b7100000000000000000000000000000000000000000000000000000000600052603260045260246000fd5b6000610b7482610835565b91507fffffffffffffffffffffffffffffffffffffffffffffffffffffffffffffffff821415610ba757610ba6610a73565b5b600182019050919050565b7f4e487b7100000000000000000000000000000000000000000000000000000000600052604160045260246000fd5b600081905092915050565b50565b6000610bfc600083610be1565b9150610c0782610bec565b600082019050919050565b6000610c1d82610bef565b9150819050919050565b7f43616c6c206661696c6564000000000000000000000000000000000000000000600082015250565b6000610c5d600b836109f6565b9150610c6882610c27565b602082019050919050565b60006020820190508181036000830152610c8c81610c50565b9050919050565b6000610c9e82610835565b9150610ca983610835565b9250817fffffffffffffffffffffffffffffffffffffffffffffffffffffffffffffffff0483118215151615610ce257610ce1610a73565b5b828202905092915050565b7f4e487b7100000000000000000000000000000000000000000000000000000000600052601260045260246000fd5b6000610d2782610835565b9150610d3283610835565b925082610d4257610d41610ced565b5b828204905092915050565b600069ffffffffffffffffffff82169050919050565b610d6c81610d4d565b8114610d7757600080fd5b50565b600081519050610d8981610d63565b92915050565b6000819050919050565b610da281610d8f565b8114610dad57600080fd5b50565b600081519050610dbf81610d99565b92915050565b600080600080600060a08688031215610de157610de0610869565b5b6000610def88828901610d7a565b9550506020610e0088828901610db0565b9450506040610e1188828901610af8565b9350506060610e2288828901610af8565b9250506080610e3388828901610d7a565b9150509295509295909350565b6000610e4b82610d8f565b9150610e5683610d8f565b9250827f7fffffffffffffffffffffffffffffffffffffffffffffffffffffffffffffff0482116000841360008413161615610e9557610e94610a73565b5b817f80000000000000000000000000000000000000000000000000000000000000000583126000841260008413161615610ed257610ed1610a73565b5b827f80000000000000000000000000000000000000000000000000000000000000000582126000841360008412161615610f0f57610f0e610a73565b5b827f7fffffffffffffffffffffffffffffffffffffffffffffffffffffffffffffff0582126000841260008412161615610f4c57610f4b610a73565b5b82820290509291505056fea26469706673582212208b882c0c95f18fb7582dcc1cbcb8f43f46a11ba55c017a18f99f16ddbe32a62764736f6c63430008080033",
  "devdoc": {
    "kind": "dev",
    "methods": {},
    "version": 1
  },
  "userdoc": {
    "kind": "user",
    "methods": {},
    "version": 1
  },
  "storageLayout": {
    "storage": [
      {
        "astId": 58,
        "contract": "contracts/FundMe.sol:FundMe",
        "label": "addressToAmountFunded",
        "offset": 0,
        "slot": "0",
        "type": "t_mapping(t_address,t_uint256)"
      },
      {
        "astId": 61,
        "contract": "contracts/FundMe.sol:FundMe",
        "label": "funders",
        "offset": 0,
        "slot": "1",
        "type": "t_array(t_address)dyn_storage"
      },
      {
        "astId": 64,
        "contract": "contracts/FundMe.sol:FundMe",
        "label": "priceFeed",
        "offset": 0,
        "slot": "2",
        "type": "t_contract(AggregatorV3Interface)45"
      },
      {
        "astId": 66,
        "contract": "contracts/FundMe.sol:FundMe",
        "label": "i_owner",
        "offset": 0,
        "slot": "3",
        "type": "t_address"
      }
    ],
    "types": {
      "t_address": {
        "encoding": "inplace",
        "label": "address",
        "numberOfBytes": "20"
      },
      "t_array(t_address)dyn_storage": {
        "base": "t_address",
        "encoding": "dynamic_array",
        "label": "address[]",
        "numberOfBytes": "32"
      },
      "t_contract(AggregatorV3Interface)45": {
        "encoding": "inplace",
        "label": "contract AggregatorV3Interface",
        "numberOfBytes": "20"
      },
      "t_mapping(t_address,t_uint256)": {
        "encoding": "mapping",
        "key": "t_address",
        "label": "mapping(address => uint256)",
        "numberOfBytes": "32",
        "value": "t_uint256"
      },
      "t_uint256": {
        "encoding": "inplace",
        "label": "uint256",
        "numberOfBytes": "32"
      }
    }
  }
}